{"abi":[{"type":"constructor","inputs":[{"name":"_usdc","type":"address","internalType":"address"},{"name":"_protocolWallet","type":"address","internalType":"address"},{"name":"_messenger","type":"address","internalType":"address"}],"stateMutability":"nonpayable"},{"type":"function","name":"BPS_DENOMINATOR","inputs":[],"outputs":[{"name":"","type":"uint256","internalType":"uint256"}],"stateMutability":"view"},{"type":"function","name":"FLASH_RESERVE_BPS","inputs":[],"outputs":[{"name":"","type":"uint256","internalType":"uint256"}],"stateMutability":"view"},{"type":"function","name":"LP_FEE_BPS","inputs":[],"outputs":[{"name":"","type":"uint256","internalType":"uint256"}],"stateMutability":"view"},{"type":"function","name":"PROTOCOL_FEE_BPS","inputs":[],"outputs":[{"name":"","type":"uint256","internalType":"uint256"}],"stateMutability":"view"},{"type":"function","name":"TOTAL_FEE_BPS","inputs":[],"outputs":[{"name":"","type":"uint256","internalType":"uint256"}],"stateMutability":"view"},{"type":"function","name":"accFeePerShare","inputs":[],"outputs":[{"name":"","type":"uint256","internalType":"uint256"}],"stateMutability":"view"},{"type":"function","name":"cctpReceived","inputs":[],"outputs":[{"name":"","type":"uint256","internalType":"uint256"}],"stateMutability":"view"},{"type":"function","name":"claimFees","inputs":[],"outputs":[],"stateMutability":"nonpayable"},{"type":"function","name":"deposit","inputs":[{"name":"amount","type":"uint256","internalType":"uint256"}],"outputs":[],"stateMutability":"nonpayable"},{"type":"function","name":"executeSwap","inputs":[{"name":"swapId","type":"bytes32","internalType":"bytes32"},{"name":"recipient","type":"address","internalType":"address"},{"name":"amountIn","type":"uint256","internalType":"uint256"}],"outputs":[],"stateMutability":"nonpayable"},{"type":"function","name":"feeDebt","inputs":[{"name":"","type":"address","internalType":"address"}],"outputs":[{"name":"","type":"uint256","internalType":"uint256"}],"stateMutability":"view"},{"type":"function","name":"flashReserve","inputs":[],"outputs":[{"name":"","type":"uint256","internalType":"uint256"}],"stateMutability":"view"},{"type":"function","name":"messenger","inputs":[],"outputs":[{"name":"","type":"address","internalType":"address"}],"stateMutability":"view"},{"type":"function","name":"owner","inputs":[],"outputs":[{"name":"","type":"address","internalType":"address"}],"stateMutability":"view"},{"type":"function","name":"pendingFees","inputs":[{"name":"lp","type":"address","internalType":"address"}],"outputs":[{"name":"","type":"uint256","internalType":"uint256"}],"stateMutability":"view"},{"type":"function","name":"processed","inputs":[{"name":"","type":"bytes32","internalType":"bytes32"}],"outputs":[{"name":"","type":"bool","internalType":"bool"}],"stateMutability":"view"},{"type":"function","name":"protocolWallet","inputs":[],"outputs":[{"name":"","type":"address","internalType":"address"}],"stateMutability":"view"},{"type":"function","name":"renounceOwnership","inputs":[],"outputs":[],"stateMutability":"nonpayable"},{"type":"function","name":"setMessenger","inputs":[{"name":"_messenger","type":"address","internalType":"address"}],"outputs":[],"stateMutability":"nonpayable"},{"type":"function","name":"shares","inputs":[{"name":"","type":"address","internalType":"address"}],"outputs":[{"name":"","type":"uint256","internalType":"uint256"}],"stateMutability":"view"},{"type":"function","name":"totalLiquidity","inputs":[],"outputs":[{"name":"","type":"uint256","internalType":"uint256"}],"stateMutability":"view"},{"type":"function","name":"transferOwnership","inputs":[{"name":"newOwner","type":"address","internalType":"address"}],"outputs":[],"stateMutability":"nonpayable"},{"type":"function","name":"usdc","inputs":[],"outputs":[{"name":"","type":"address","internalType":"contract IERC20"}],"stateMutability":"view"},{"type":"function","name":"withdraw","inputs":[{"name":"shareAmount","type":"uint256","internalType":"uint256"}],"outputs":[],"stateMutability":"nonpayable"},{"type":"function","name":"withdrawFlashReserve","inputs":[],"outputs":[],"stateMutability":"nonpayable"},{"type":"event","name":"CCTPReceived","inputs":[{"name":"swapId","type":"bytes32","indexed":true,"internalType":"bytes32"},{"name":"amount","type":"uint256","indexed":false,"internalType":"uint256"}],"anonymous":false},{"type":"event","name":"Deposited","inputs":[{"name":"lp","type":"address","indexed":true,"internalType":"address"},{"name":"amount","type":"uint256","indexed":false,"internalType":"uint256"},{"name":"shares","type":"uint256","indexed":false,"internalType":"uint256"}],"anonymous":false},{"type":"event","name":"FeesDistributed","inputs":[{"name":"lpFee","type":"uint256","indexed":false,"internalType":"uint256"},{"name":"protocolFee","type":"uint256","indexed":false,"internalType":"uint256"},{"name":"flashFee","type":"uint256","indexed":false,"internalType":"uint256"}],"anonymous":false},{"type":"event","name":"OwnershipTransferred","inputs":[{"name":"previousOwner","type":"address","indexed":true,"internalType":"address"},{"name":"newOwner","type":"address","indexed":true,"internalType":"address"}],"anonymous":false},{"type":"event","name":"SwapExecuted","inputs":[{"name":"swapId","type":"bytes32","indexed":true,"internalType":"bytes32"},{"name":"recipient","type":"address","indexed":true,"internalType":"address"},{"name":"amountIn","type":"uint256","indexed":false,"internalType":"uint256"},{"name":"amountOut","type":"uint256","indexed":false,"internalType":"uint256"}],"anonymous":false},{"type":"event","name":"Withdrawn","inputs":[{"name":"lp","type":"address","indexed":true,"internalType":"address"},{"name":"amount","type":"uint256","indexed":false,"internalType":"uint256"},{"name":"shares","type":"uint256","indexed":false,"internalType":"uint256"}],"anonymous":false},{"type":"error","name":"AlreadyProcessed","inputs":[]},{"type":"error","name":"InsufficientLiquidity","inputs":[]},{"type":"error","name":"OwnableInvalidOwner","inputs":[{"name":"owner","type":"address","internalType":"address"}]},{"type":"error","name":"OwnableUnauthorizedAccount","inputs":[{"name":"account","type":"address","internalType":"address"}]},{"type":"error","name":"ReentrancyGuardReentrantCall","inputs":[]},{"type":"error","name":"SafeERC20FailedOperation","inputs":[{"name":"token","type":"address","internalType":"address"}]},{"type":"error","name":"Unauthorized","inputs":[]},{"type":"error","name":"ZeroAmount","inputs":[]}],"bytecode":{"object":"0x60c03461016157601f610ff838819003918201601f19168301916001600160401b03831184841017610165578084926060946040528339810103126101615761004781610179565b90610060604061005960208401610179565b9201610179565b9060017f9b779b17422d0df92223018b32b4d1fa46e071723d6817e2486d003becc55f0055331561014e575f8054336001600160a01b0319821681178355604051959290916001600160a01b0316907f8be0079c531659141344cd1fd0a4f28419497f9722a3daafe3b4186f6b6457e09080a36001600160a01b0390811660805260a091909152600180546001600160a01b03191692909116919091179055610e6a908161018e82396080518181816102f101528181610578015281816106110152818161074a01528181610ada0152610d65015260a051818181610557015281816108500152610bc60152f35b631e4fbdf760e01b5f525f60045260245ffd5b5f80fd5b634e487b7160e01b5f52604160045260245ffd5b51906001600160a01b03821682036101615756fe6080806040526004361015610012575f80fd5b5f3560e01c90816306d6e63f14610bb45750806315770f9214610b9757806325d2a3f314610b6c57806325fd302714610b4f5780632e1a7d4d14610a3d578063325b59f8146106685780633cb747bf146106405780633e413bee146105fc5780635982b221146105e1578063662859671461059e5780636bdd5d42146105335780636f28507c14610518578063715018a6146104c15780638da5cb5b1461049a578063a52582101461047f578063a7b5d53914610447578063b6b55f25146102c4578063be378228146102a9578063c1f0808a1461027a578063ca5b95c11461025d578063ce7c2ac214610225578063d294f093146101f1578063dd3b829a146101d4578063e1a45218146101b85763f2fde38b1461012f575f80fd5b346101b45760203660031901126101b457610148610bf5565b610150610dee565b6001600160a01b031680156101a1575f80546001600160a01b03198116831782556001600160a01b0316907f8be0079c531659141344cd1fd0a4f28419497f9722a3daafe3b4186f6b6457e09080a3005b631e4fbdf760e01b5f525f60045260245ffd5b5f80fd5b346101b4575f3660031901126101b45760206040516127108152f35b346101b4575f3660031901126101b4576020600454604051908152f35b346101b4575f3660031901126101b457610209610c96565b61021233610cce565b60015f516020610e155f395f51905f5255005b346101b45760203660031901126101b4576001600160a01b03610246610bf5565b165f526006602052602060405f2054604051908152f35b346101b4575f3660031901126101b4576020600354604051908152f35b346101b45760203660031901126101b4576004355f526008602052602060ff60405f2054166040519015158152f35b346101b4575f3660031901126101b457602060405160328152f35b346101b45760203660031901126101b4576004356102e0610c96565b8015610438576102ef33610cce565b7f00000000000000000000000000000000000000000000000000000000000000006040516323b872dd60e01b5f5233600452306024528260445260205f60648180865af19060015f5114821615610417575b6040525f606052156103f75750335f52600660205260405f20610365828254610c89565b905561037381600254610c89565b600255335f526006602052670de0b6b3a764000061039860405f205460045490610c0b565b04335f52600760205260405f2055335f52600660205260405f205460405191825260208201527f73a19dd210f1a7f902193214c0ee91dd35ee5b4d920cba8d519eca65a7b488ca60403392a260015f516020610e155f395f51905f5255005b635274afe760e01b5f9081526001600160a01b0391909116600452602490fd5b90600181151661042f57823b15153d15161690610341565b503d5f823e3d90fd5b631f2a200560e01b5f5260045ffd5b346101b45760203660031901126101b4576001600160a01b03610468610bf5565b165f526007602052602060405f2054604051908152f35b346101b4575f3660031901126101b457602060405160508152f35b346101b4575f3660031901126101b4575f546040516001600160a01b039091168152602090f35b346101b4575f3660031901126101b4576104d9610dee565b5f80546001600160a01b0319811682556001600160a01b03167f8be0079c531659141344cd1fd0a4f28419497f9722a3daafe3b4186f6b6457e08280a3005b346101b4575f3660031901126101b457602060405160968152f35b346101b4575f3660031901126101b45761054b610dee565b61059c6003545f6003557f00000000000000000000000000000000000000000000000000000000000000007f0000000000000000000000000000000000000000000000000000000000000000610d96565b005b346101b45760203660031901126101b4576105b7610bf5565b6105bf610dee565b600180546001600160a01b0319166001600160a01b0392909216919091179055005b346101b4575f3660031901126101b457602060405160148152f35b346101b4575f3660031901126101b4576040517f00000000000000000000000000000000000000000000000000000000000000006001600160a01b03168152602090f35b346101b4575f3660031901126101b4576001546040516001600160a01b039091168152602090f35b346101b45760603660031901126101b4576004356024356001600160a01b0381168082036101b4576044359061069c610c96565b6001546001600160a01b03163303610a2f57835f52600860205260ff60405f205416610a2057811561043857835f52600860205260405f20600160ff198254161790556096820282810460960361099457605083028381046050036109945761271090049160328402848104603203610994576127109004906014850285810460140361099457612710806107349204940486610c1e565b6040516370a0823160e01b8152306004820152907f00000000000000000000000000000000000000000000000000000000000000006020836024816001600160a01b0385165afa928315610a15575f936109b7575b5060025492600354906107a58a6107a08488610c89565b610c89565b116109a8578a936107b88a600554610c89565b60055580159081156108af575b5050927f67054d8dde28341129dd15e2a934951dbab84356c01d50e85cbba07615a13cd860408461087a606099967f47ea668d70ee5ff4a4085576d89f8685ac10ef669628970c7956f2e789139e839e60209e9d9a976108478e7f312c5308f42848705a866c73dec11fd0783c2d64aac6a97e94467062ad3f40589f9c610c89565b6003556108758a7f000000000000000000000000000000000000000000000000000000000000000083610d96565b610d96565b8151908b82528c820152a3604051928352868301526040820152a1604051908152a260015f516020610e155f395f51905f5255005b9794509990959298979491670de0b6b3a764000086029a868c04670de0b6b3a76400001487151715610994576109805760408a61087a60209c8f957f47ea668d70ee5ff4a4085576d89f8685ac10ef669628970c7956f2e789139e839f956108478b7f312c5308f42848705a866c73dec11fd0783c2d64aac6a97e94467062ad3f40589f9e60609f610966907f67054d8dde28341129dd15e2a934951dbab84356c01d50e85cbba07615a13cd89b04600454610c89565b600455999c509e5050979a9d9e509e5050509497506107c5565b634e487b7160e01b5f52601260045260245ffd5b634e487b7160e01b5f52601160045260245ffd5b63bb55fd2760e01b5f5260045ffd5b90925060203d602011610a0e575b601f8101601f1916820167ffffffffffffffff8111838210176109fa576020918391604052810103126101b45751918a610789565b634e487b7160e01b5f52604160045260245ffd5b503d6109c5565b6040513d5f823e3d90fd5b632bf773b360e11b5f5260045ffd5b6282b42960e81b5f5260045ffd5b346101b45760203660031901126101b457600435610a59610c96565b801561043857335f5260066020528060405f2054106109a857610a7b33610cce565b335f52600660205260405f20610a92828254610c1e565b9055610aa081600254610c1e565b600255335f526006602052670de0b6b3a7640000610ac560405f205460045490610c0b565b04335f52600760205260405f2055610afe81337f0000000000000000000000000000000000000000000000000000000000000000610d96565b335f52600660205260405f205460405191825260208201527f92ccf450a286a957af52509bc1c9939d1a6a481783e142e41e2499f0bb66ebc660403392a260015f516020610e155f395f51905f5255005b346101b4575f3660031901126101b4576020600554604051908152f35b346101b45760203660031901126101b4576020610b8f610b8a610bf5565b610c2b565b604051908152f35b346101b4575f3660031901126101b4576020600254604051908152f35b346101b4575f3660031901126101b4577f00000000000000000000000000000000000000000000000000000000000000006001600160a01b03168152602090f35b600435906001600160a01b03821682036101b457565b8181029291811591840414171561099457565b9190820391821161099457565b6001600160a01b03165f8181526006602052604090205415610c845780610c81915f526006602052670de0b6b3a7640000610c6d60405f205460045490610c0b565b04905f52600760205260405f205490610c1e565b90565b505f90565b9190820180921161099457565b60025f516020610e155f395f51905f525414610cbf5760025f516020610e155f395f51905f5255565b633ee5aeb560e01b5f5260045ffd5b6001600160a01b0381165f8181526006602052604090205415610d9257805f52600660205260405f205491610d26670de0b6b3a7640000610d126004548096610c0b565b04835f52600760205260405f205490610c1e565b9182610d33575b50505050565b670de0b6b3a7640000610d55610d8995835f52600660205260405f2054610c0b565b04905f52600760205260405f20557f0000000000000000000000000000000000000000000000000000000000000000610d96565b5f808080610d2d565b5050565b916040519163a9059cbb60e01b5f5260018060a01b031660045260245260205f60448180865af19060015f5114821615610dd6575b604052156103f75750565b90600181151661042f57823b15153d15161690610dcb565b5f546001600160a01b03163303610e0157565b63118cdaa760e01b5f523360045260245ffdfe9b779b17422d0df92223018b32b4d1fa46e071723d6817e2486d003becc55f00a2646970667358221220c70789f6d72e573d95d76599ae260726d83dfdde4c7264815c7573e7410693f064736f6c63430008230033","linkReferences":{}},"methodIdentifiers":{"BPS_DENOMINATOR()":"e1a45218","FLASH_RESERVE_BPS()":"5982b221","LP_FEE_BPS()":"a5258210","PROTOCOL_FEE_BPS()":"be378228","TOTAL_FEE_BPS()":"6f28507c","accFeePerShare()":"dd3b829a","cctpReceived()":"25fd3027","claimFees()":"d294f093","deposit(uint256)":"b6b55f25","executeSwap(bytes32,address,uint256)":"325b59f8","feeDebt(address)":"a7b5d539","flashReserve()":"ca5b95c1","messenger()":"3cb747bf","owner()":"8da5cb5b","pendingFees(address)":"25d2a3f3","processed(bytes32)":"c1f0808a","protocolWallet()":"06d6e63f","renounceOwnership()":"715018a6","setMessenger(address)":"66285967","shares(address)":"ce7c2ac2","totalLiquidity()":"15770f92","transferOwnership(address)":"f2fde38b","usdc()":"3e413bee","withdraw(uint256)":"2e1a7d4d","withdrawFlashReserve()":"6bdd5d42"},"id":34}